:020000040800F2
:10000000104E002071020008DD070008E10700081B
:10001000E5070008E9070008ED07000800000000F8
:10002000000000000000000000000000B101000816
:10003000F1070008000000000D02000801CA0008D6
:100040008B0200088B0200088B0200088B0200085C
:100050008B0200088B0200088B0200088B0200084C
:100060008B0200088B0200088B0200088B0200083C
:100070008B0200088B0200088B0200088B0200082C
:100080008B0200088B0200088B02000800000000B1
:100090000000000000000000000000008B020008CB
:1000A0008B020008F30700088B0200088B0200088F
:1000B0008B0200088B0200088B0200088B020008EC
:1000C0008B0200088B0200088B0200088B020008DC
:1000D0008B0200088B0200088B0200080000000061
:1000E0008B0200088B0200088B0200080000000051
:1000F0000000000000000000000000008B0200086B
:10010000000000008B0200088B0200088B02000830
:1001100000000000000000000000000000000000DF
:100120008B0200088B0200088B0200088B0200087B
:100130008B0200080000000000000000000000002A
:100140000000000000000000000000008B0200081A
:100150008B0200088B0200088B0200088B0200084B
:100160008B0200088B020008000000000000000065
:10017000000000000000000000000000000000007F
:10018000000000008B0200080000000000000000DA
:100190008B0200088B020008DFF810D00EF0B8FACE
:1001A000004800475D030008AFF30080104E0020B8
:1001B0002C4B19680868B0E8F04F80F30988BFF34A
:1001C0006F8F4FF0000080F311887047000000002F
:1001D00008480068006880F308884FF0000080F34A
:1001E000148862B661B6BFF34F8FBFF36F8F00DF25
:1001F00000BF00BF08ED00E0DFF80C00016841F42B
:1002000070010160704700BF88ED00E0EFF30980E6
:10021000BFF36F8F134B1A681EF0100F08BF20ED4D
:10022000108A20E9F04F106009B44FF0500080F3BD
:100230001188BFF34F8FBFF36F8F0AF0ACFF4FF001
:10024000000080F3118809BC19680868B0E8F04F15
:100250001EF0100F08BFB0EC108A80F30988BFF3BE
:100260006F8F704724000020EFF305807047000077
:100270000648804706480047FEE7FEE7FEE7FEE740
:10028000FEE7FEE7FEE7FEE7FEE7FEE79D900008DB
:100290009901000813B50C464FF6FF730122694619
:1002A0003B4807F04FFC00981CBD72B600BFFEE74C
:1002B00000B593B0302107A80EF0EAF9142102A886
:1002C0000EF0E6F900BF002001903248006840F0CF
:1002D0008050304908600846006800F08050019066
:1002E00000BF00BF00BF002001902B48006840F411
:1002F0004040294908600846006800F440400190E9
:1003000000BF00BF0220079001200A9010200B9030
:1003100002200D9000210E9108210F91642110916F
:10032000022111910421129107A805F0B3FB08B135
:10033000FFF7BBFF0F2002900220039000200490E3
:100340004FF48050059000200690032102A805F08C
:100350003DFE08B1FFF7A9FF13B000BD07F049F853
:10036000FFF7A6FF00F01CF800F0C8F90CF053FBF3
:1003700000F000F90CF08EFB00BFFEE710B504465C
:1003800006492068884201D107F06EF810BD0000D0
:10039000A8000020403802400070004000000140EA
:1003A00000B587B0142102A80EF072F900BF00203A
:1003B00001902448006840F0040022490860084683
:1003C000006800F00400019000BF00BF00BF0020E3
:1003D00001900846006840F0800008600846006808
:1003E00000F08000019000BF00BF00BF002001901E
:1003F0000846006840F0010008600846006800F008
:100400000100019000BF00BF00224FF400510E48D0
:1004100006F051F94FF400500290012003900020A3
:100420000490059002A9084805F0D6FF012002902B
:10043000002003900120049002A9044805F0CCFF9D
:1004400007B000BD30380240000802400000024002
:1004500008B500BF00200090002201210A2009F009
:1004600021FA514908600846006818B94FA00EF0FB
:1004700061F902E054A00EF05DF900BF5BA00EF040
:1004800059F94948006878B16422694646480068CD
:1004900009F08EFE40B19DF8001059A00EF04AF907
:1004A0009DF800000EF08EF864200CF026FEE5E7C3
:1004B0001CB5002401200190002204210A2009F02B
:1004C000F1F957490860002000900846006818B903
:1004D00054A00EF02FF902E059A00EF02BF900BF46
:1004E0000098401C009001A80EF054F804468CB906
:1004F0009DF8040070B95BA00EF01CF901230022E6
:1005000069464748006809F087FA012802D159A0D6
:100510000EF010F914B15CA00EF00CF964200CF090
:10052000ECFDDDE71CB500200190009000BF5BA052
:100530000EF000F93A480068C0B1642201A93848B9
:10054000006809F035FE88B159A001990EF0F2F863
:10055000022000900123002269461348006809F038
:100560005BFA012802D159A00EF0E4F801200CF04A
:10057000C4FDDCE710B55B4A0021AFF257000CF078
:1005800063FB59490860594A0021AFF2DB000CF0C7
:100590005BFB57490860574A0021AFF24B100CF043
:1005A00053FB5549086010BD100000206C65645F66
:1005B0007175657565206372656174656420666137
:1005C000696C6564200D0A006C65645F7175657502
:1005D0006520637265617465642073756363657318
:1005E0007366756C6C79200D0A00000048656C6CB0
:1005F0006F206C6564207468726561640D0A000088
:100600007265636569766564206C65645F717565A4
:1006100075652076616C7565203D205B25645D0005
:100620000C0000206B65795F7175657565206372DC
:100630006561746564206661696C6564200D0A00FB
:100640006B65795F71756575652063726561746549
:1006500064207375636365737366756C6C79200DC4
:100660000A0000004B65795F507265737365640D15
:100670000A00000073656E642073756363657373AD
:1006800066756C6C790D0A004B65795F6E6F745FEF
:10069000507265737365640D0A00000053746172D3
:1006A0007444656661756C745461736B0D0A000067
:1006B0007265636569766564207175657565207618
:1006C000616C7565203D205B25645D006C65642070
:1006D00073656E64207375636365737366756C6CA4
:1006E000790D0A00C8E8000800000020ECE80008C6
:1006F0000400002010E900080800002010B533486D
:10070000334908604FF4E13048600021304881608F
:10071000C16001610C21416100218161C16107F06B
:1007200061F808B1FFF7C1FD10BD10B586B00446F1
:10073000142101A80DF0ACFF24492068884230D173
:1007400000BF002000902348006840F010002149BD
:1007500008600846006800F01000009000BF00BF6D
:1007600000BF002000901B481438006840F00100D2
:100770001849143908600846006800F0010000902C
:1007800000BF00BF4FF4C060019002200290002023
:100790000390032004900720059001A90E4805F05E
:1007A0001BFE06B010BD10B50446084920688842FB
:1007B0000AD10848006820F01000064908604FF48C
:1007C000C061054805F0DCFE10BD000000100140CE
:1007D000A8000020443802400000024000BFFEE7AD
:1007E00000BFFEE700BFFEE700BFFEE700BFFEE779
:1007F000704710B5014802F0E8FC10BDF000002081
:1008000008B500BF002000901148006840F4804007
:100810000F4908600846006800F48040009000BF5F
:1008200000BF00BF00200090081F006840F080500B
:10083000091F08600846006800F08050009000BF63
:1008400000BF00220F21901E06F0F8FB08BD00003B
:1008500044380240F0B587B004460026002700BFA8
:10086000002000902748006840F0010025490860FA
:100870000846006800F00100009000BF00BF01A919
:1008800002A805F074FD05F0D8FC06461E48B6FB2C
:10089000F0F0471E1D481E49086040F2E7311C4831
:1008A000C1604760002101618160816100F07CF8D6
:1008B000054695B9164800F037F905466DB9192077
:1008C00006F0FAFB102C07D200222146192006F070
:1008D000B5FB1048046000E00125284607B0F0BDD4
:1008E0000B480068C06820F0010009490968C86029
:1008F000704707480068C06840F001000449096873
:10090000C86070474438024040420F000000014078
:10091000F00000201800002010B50268FE4B98423D
:100920000BD0B0F1804F08D0FC4B984205D0FC4B67
:10093000984202D0FB4B984203D122F070024B68E0
:100940001A43F54B984214D0B0F1804F11D0F34BBD
:1009500098420ED0F24B98420BD0F24B984208D0FE
:10096000F14B984205D0F14B984202D0F04B98429F
:1009700003D122F44072CB681A4322F080034C6901
:1009800043EA04028B68C3620B688362E24B9842BD
:1009900001D10B690363036843F00403036001237F
:1009A0004361026010BD704710B504460CB90120C8
:1009B00010BD94F83D0028B9002084F83C00204682
:1009C000FFF7F1FF022084F83D00211D2068FFF7AA
:1009D000A3FF012084F8460000BF84F83E000121F7
:1009E0003F200155402001554120015500BF00BF67
:1009F000012084F842004320015544200155452040
:100A0000015500BF012084F83D000020D0E7704769
:100A100010B50446022084F83D0000BF2068006A3B
:100A200041F21111084050B92068006A891008404D
:100A300028B92068006820F001002168086000BF24
:100A40002046FFF7E4FF002084F8460000BF84F84A
:100A50003E0000213F200155402001554120015515
:100A600000BF00BF002084F842004320015544200D
:100A700001554520015500BF002084F83D0000BF0E
:100A800084F83C0000BF10BD014691F83D000128EC
:100A900001D001207047022081F83D009E4B08687C
:100AA000984213D00868B0F1804F0FD09B4B086874
:100AB00098420BD09A4B0868984207D0994B086827
:100AC000984203D0984B086898420CD10868806817
:100AD00000F00702062A0CD00868006840F0010008
:100AE0000B68186005E00868006840F001000B68BA
:100AF00018600020CEE7014600BF0868006A41F296
:100B00001112104050B90868006A9210104028B9BC
:100B10000868006820F001000A68106000BF01202A
:100B200081F83D0000207047014691F83D00012802
:100B300001D001207047022081F83D000868C0689C
:100B400040F001000B68D860734B0868984213D0DE
:100B50000868B0F1804F0FD0704B086898420BD0F6
:100B60006F4B0868984207D06E4B0868984203D0D4
:100B70006D4B086898420CD10868806800F0070245
:100B8000062A0CD00868006840F001000B68186065
:100B900005E00868006840F001000B68186000205C
:100BA000C8E701460868C06820F001000A68D06004
:100BB00000BF0868006A41F21112104050B908687D
:100BC000006A9210104028B90868006820F00100FF
:100BD0000A68106000BF012081F83D0000207047C6
:100BE000704770B50546AC6B606AA84204D101201D
:100BF000207784F83E001DE0A06AA84205D10220BB
:100C0000207701213F20015514E0E06AA84205D178
:100C1000042020770121402001550BE0206BA842E1
:100C200005D10820207701214120015502E0012053
:100C300084F83D002046FFF7D3FF0020207770BDE9
:100C4000704770B50446A56B2846FFF7F9FF70BDE5
:100C5000704770B50546AC6B206AC06910B90120B9
:100C600084F83D002046FFF789FB70BD2DE9F04177
:100C700004460E46154694F83D00022801D1BDE811
:100C8000F08194F83D00012807D106B10DB901208B
:100C9000F5E7022084F83D0001E00120EFE7254858
:100CA000216AC8632448216A0864AFF2C900216A36
:100CB000C864216801F12C022B463146206A05F0F8
:100CC000A2FE08B10120DAE72068C06840F4807015
:100CD0002168C86010492068884213D02068B0F1AC
:100CE000804F0FD00D49206888420BD00C492068F6
:100CF000884207D00B492068884203D00A492068FF
:100D0000884220D12068806800F00707062F20D095
:100D10002068006812E0000000000140000400406C
:100D200000080040000C0040004001400044014029
:100D300000480140530C0008430C000840F001003B
:100D40002168086005E02068006840F00100216823
:100D50000860002093E710B504462068C06820F4BE
:100D600080702168C860206A05F0F0FE00BF20682E
:100D7000006A41F21111084050B92068006A8910D8
:100D8000084028B92068006820F001002168086048
:100D900000BF012084F83D00002010BD704710B551
:100DA00004460CB9012010BD94F83D0028B900207C
:100DB00084F83C002046FFF7F1FF022084F83D0054
:100DC000211D2068FFF7A8FD012084F8460000BF20
:100DD00084F83E0001213F2001554020015541206B
:100DE000015500BF00BF012084F842004320015597
:100DF000442001554520015500BF012084F83D00E5
:100E00000020D0E7704710B50446022084F83D006A
:100E100000BF2068006A41F21111084050B92068F3
:100E2000006A8910084028B92068006820F0010095
:100E30002168086000BF2046FFF7E4FF002084F827
:100E4000460000BF84F83E0000213F2001554020AD
:100E500001554120015500BF00BF002084F8420029
:100E600043200155442001554520015500BF002075
:100E700084F83D0000BF84F83C0000BF10BD30B5D1
:100E800001F01F05012404FA05F3046A9C4304627F
:100E9000046A01F01F0502FA05F52C43046230BD17
:100EA00070B504460D4615B994F83E000BE0042DCC
:100EB00002D13F20005D06E0082D02D14020005DF8
:100EC00001E04120005D012801D0012070BD1DB965
:100ED000022084F83E000EE0042D03D102213F20C1
:100EE000015508E0082D03D102214020015502E000
:100EF000022141200155012229462068FFF7BFFF4A
:100F0000F9492068884201D1012000E0002028B181
:100F10002068406C40F4004021684864F249206831
:100F2000884213D02068B0F1804F0FD0EF4920687D
:100F300088420BD0EE492068884207D0ED492068EE
:100F4000884203D0EC49206888420CD12068806830
:100F500000F00706062E0CD02068006840F0010063
:100F60002168086005E02068006840F00100216801
:100F700008600020AAE730B504460D460022294645
:100F80002068FFF77CFFD8492068884201D1012002
:100F900000E0002090B100BF2068006A41F211110A
:100FA000084050B92068006A8910084028B92068B4
:100FB000406C20F400402168486400BF00BF2068F6
:100FC000006A41F21111084050B92068006A891086
:100FD000084028B92068006820F0010021680860F6
:100FE00000BF1DB9012084F83E000EE0042D03D19E
:100FF00001213F20015508E0082D03D101214020A7
:10100000015502E0012141200155002030BDF0B51D
:1010100004460D46002615B994F83E000BE0042D59
:1010200002D13F20005D06E0082D02D14020005D86
:1010300001E04120005D012801D00120F0BD1DB973
:10104000022084F83E000EE0042D03D102213F204F
:10105000015508E0082D03D102214020015502E08E
:1010600002214120015535B1042D0BD0082D10D09F
:101070000C2D1CD114E02068C06840F002002168EB
:10108000C86016E02068C06840F004002168C860AD
:101090000FE02068C06840F008002168C86008E0E0
:1010A0002068C06840F010002168C86001E0012697
:1010B00000BF00BFB6BB012229462068FFF7DFFE54
:1010C00089492068884201D1012000E0002028B130
:1010D0002068406C40F400402168486482492068E0
:1010E000884213D02068B0F1804F0FD07F4920682C
:1010F00088420BD07E492068884207D07D4920680D
:10110000884203D07C49206888420CD120688068DE
:1011100000F00707062F0CD02068006840F001009F
:101120002168086005E02068006840F0010021683F
:101130000860304682E770B504460D46002635B19A
:10114000042D0BD0082D10D00C2D1CD114E02068DC
:10115000C06820F002002168C86016E02068C068FE
:1011600020F004002168C8600FE02068C06820F00B
:1011700008002168C86008E02068C06820F01000FE
:101180002168C86001E0012600BF00BF002E46D1E3
:10119000002229462068FFF772FE534920688842E2
:1011A00001D1012000E0002090B100BF2068006A5A
:1011B00041F21111084050B92068006A89100840B6
:1011C00028B92068406C20F400402168486400BFC2
:1011D00000BF2068006A41F21111084050B9206830
:1011E000006A8910084028B92068006820F00100D2
:1011F0002168086000BF1DB9012084F83E000EE0A0
:10120000042D03D101213F20015508E0082D03D111
:1012100001214020015502E00121412001553046C5
:1012200070BD704770B50546AC6B606AA84202D1CC
:101230000120207710E0A06AA84202D10220207786
:101240000AE0E06AA84202D10420207704E0206B83
:10125000A84201D1082020772046FFF7E2FF0020B6
:10126000207770BD704770B50546AC6B606AA842C8
:1012700007D101202077E86918BB012084F83E00DF
:101280001FE0A06AA84207D102202077E869C0B910
:1012900001213F20015514E0E06AA84207D1042053
:1012A0002077E86968B901214020015509E0206BE9
:1012B000A84206D108202077E86910B90121412011
:1012C00001552046FFF7CEFF0020207770BD2DE9A5
:1012D000F04704460D4616461F464FF000086DB90C
:1012E00094F83E0016E000000000014000040040B9
:1012F00000080040000C004000400140042D02D1D5
:101300003F20005D06E0082D02D14020005D01E095
:101310004120005D022801D1BDE8F08715B994F89D
:101320003E000BE0042D02D13F20005D06E0082DB9
:1013300002D14020005D01E04120005D012818D16C
:1013400006B10FB90120E7E71DB9022084F83E007D
:1013500011E0042D03D102213F2001550BE0082D9F
:1013600003D102214020015505E002214120015511
:1013700001E00120D0E735B1042D21D0082D3CD06B
:101380000C2D75D156E0FE49606AC163AFF26B1156
:10139000606A0164AFF2B571606AC164216801F1ED
:1013A00034023B463146606A05F02DFB08B101204E
:1013B000B2E72068C06840F400702168C8605AE055
:1013C000EF49A06AC163AFF2A311A06A0164AFF252
:1013D000ED71A06AC164216801F138023B463146D3
:1013E000A06A05F010FB08B1012095E72068C068ED
:1013F00040F480602168C8603DE0E149E06AC16373
:10140000AFF2DF11E06A0164AFF62901E06AC1645E
:10141000216801F13C023B463146E06A05F0F3FAEF
:1014200008B1012078E72068C06840F400602168B6
:10143000C86020E0D249206BC163AFF21721206B56
:101440000164AFF66101206BC164216801F14002C3
:101450003B463146206B05F0D6FA08B101205BE728
:101460002068C06840F480502168C86003E0FFE74E
:101470004FF0010800BF00BFB8F1000F3ED10122BC
:1014800029462068FFF7FBFCBE492068884201D14D
:10149000012000E0002028B12068406C40F40040AA
:1014A00021684864B7492068884213D02068B0F1A9
:1014B000804F0FD0B449206888420BD0B3492068D0
:1014C000884207D0B2492068884203D0B1492068D9
:1014D00088420DD12068806800F00709B9F1060F35
:1014E0000CD02068006840F001002168086005E029
:1014F0002068006840F001002168086040460BE762
:1015000070B504460D46002635B1042D0ED0082DC9
:1015100016D00C2D28D11DE02068C06820F4007082
:101520002168C860606A05F011FB1FE02068C06890
:1015300020F480602168C860A06A05F007FB15E010
:101540002068C06820F400602168C860E06A05F087
:10155000FDFA0BE02068C06820F480502168C86064
:10156000206B05F0F3FA01E0012600BF00BF002E5A
:1015700046D1002229462068FFF781FC8149206876
:10158000884201D1012000E0002090B100BF206816
:10159000006A41F21111084050B92068006A8910B0
:1015A000084028B92068406C20F400402168486455
:1015B00000BF00BF2068006A41F21111084050B915
:1015C0002068006A8910084028B92068006820F067
:1015D00001002168086000BF1DB9012084F83E00A9
:1015E0000EE0042D03D101213F20015508E0082D14
:1015F00003D101214020015502E001214120015584
:10160000304670BD704710B504460CB9012010BDBE
:1016100094F83D0028B9002084F83C002046FFF7EC
:10162000F1FF022084F83D00211D2068FFF774F9C6
:10163000012084F8460000BF84F83E0001213F20CD
:101640000155402001554120015500BF00BF012038
:1016500084F842004320015544200155452001559E
:1016600000BF012084F83D000020D0E7704710B58E
:101670000446022084F83D0000BF2068006A41F261
:101680001111084050B92068006A8910084028B933
:101690002068006820F001002168086000BF204633
:1016A000FFF7E4FF002084F8460000BF84F83E0006
:1016B00000213F200155402001554120015500BF28
:1016C00000BF002084F8420043200155442001550A
:1016D0004520015500BF002084F83D0000BF84F87C
:1016E0003C0000BF10BD70B504460D4615B994F816
:1016F0003E000BE0042D02D13F20005D06E0082DE6
:1017000002D14020005D01E04120005D012801D0B0
:10171000012070BD1DB9022084F83E000EE0042DAA
:1017200003D102213F20015508E0082D03D10221F9
:101730004020015502E002214120015501222946A5
:101740002068FFF79CFB0F492068884201D10120E7
:1017500000E0002028B12068406C40F4004021687F
:10176000486408492068884220D02068B0F1804F42
:101770001CD005492068884218D0044920680BE035
:10178000671200080000014000040040000800400B
:10179000000C004000400140884207D0FB4920680F
:1017A000884203D0FA49206888420CD120688068BA
:1017B00000F00706062E0CD02068006840F00100FB
:1017C0002168086005E02068006840F00100216899
:1017D000086000209DE730B504460D4600222946EA
:1017E0002068FFF74CFBEB492068884201D10120BB
:1017F00000E0002090B100BF2068006A41F21111A2
:10180000084050B92068006A8910084028B920684B
:10181000406C20F400402168486400BF00BF20688D
:10182000006A41F21111084050B92068006A89101D
:10183000084028B92068006820F00100216808608D
:1018400000BF1DB9012084F83E000EE0042D03D135
:1018500001213F20015508E0082D03D1012140203E
:10186000015502E0012141200155002030BDF0B5B5
:1018700004460D46002615B994F83E000BE0042DF1
:1018800002D13F20005D06E0082D02D14020005D1E
:1018900001E04120005D012801D00120F0BD1DB90B
:1018A000022084F83E000EE0042D03D102213F20E7
:1018B000015508E0082D03D102214020015502E026
:1018C00002214120015535B1042D0BD0082D10D037
:1018D0000C2D1CD114E02068C06840F00200216883
:1018E000C86016E02068C06840F004002168C86045
:1018F0000FE02068C06840F008002168C86008E078
:101900002068C06840F010002168C86001E001262E
:1019100000BF00BFB6BB012229462068FFF7AFFA1F
:101920009C492068884201D1012000E0002028B1B4
:101930002068406C40F40040216848649549206864
:10194000884213D02068B0F1804F0FD092492068B0
:1019500088420BD091492068884207D08B49206883
:10196000884203D08A49206888420CD12068806868
:1019700000F00707062F0CD02068006840F0010037
:101980002168086005E02068006840F001002168D7
:101990000860304682E770B504460D46002635B132
:1019A000042D0BD0082D10D00C2D1CD114E0206874
:1019B000C06820F002002168C86016E02068C06896
:1019C00020F004002168C8600FE02068C06820F0A3
:1019D00008002168C86008E02068C06820F0100096
:1019E0002168C86001E0012600BF00BF002E46D17B
:1019F000002229462068FFF742FA6649206888429B
:101A000001D1012000E0002090B100BF2068006AF1
:101A100041F21111084050B92068006A891008404D
:101A200028B92068406C20F400402168486400BF59
:101A300000BF2068006A41F21111084050B92068C7
:101A4000006A8910084028B92068006820F0010069
:101A50002168086000BF1DB9012084F83E000EE037
:101A6000042D03D101213F20015508E0082D03D1A9
:101A700001214020015502E001214120015530465D
:101A800070BD2DE9F04704460D4616461F464FF03F
:101A9000000815B994F83E000BE0042D02D13F2058
:101AA000005D06E0082D02D14020005D01E04120EC
:101AB000005D022801D1BDE8F08715B994F83E0019
:101AC0000BE0042D02D13F20005D06E0082D02D17D
:101AD0004020005D01E04120005D012818D106B1E1
:101AE0000FB90120E7E71DB9022084F83E0011E09C
:101AF000042D03D102213F2001550BE0082D03D115
:101B000002214020015505E002214120015501E05C
:101B10000120D0E735B1042D21D0082D49D00C2D5E
:101B200079D163E01E49606AC163AFF60711606A4C
:101B30000164AFF65171606AC164216801F1340239
:101B40003B463146606A04F05EFF08B10120B2E70F
:101B50002068C06840F400702168C86066E01049E1
:101B6000A06AC163AFF64311A06A0164AFF68D713C
:101B7000A06AC164216801F138023B463146A06A7F
:101B800004F041FF70B1012095E70000000C004017
:101B900000400140000001400004004000080040F7
:101BA000671200082068C06840F480602168C8603F
:101BB0003CE0FA49E06AC163AFF69711E06A01645C
:101BC000AFF6E171E06AC164216801F13C023B4675
:101BD0003146E06A04F017FF08B101206BE7206886
:101BE000C06840F400602168C8601FE0EB49206BCA
:101BF000C163AFF6CF11206B0164E949206BC1646A
:101C0000216801F140023B463146206B04F0FBFEA7
:101C100010B101204FE706E02068C06840F4805012
:101C20002168C86002E04FF0010800BF00BFB8F1B2
:101C3000000F3ED1012229462068FFF720F9D9493B
:101C40002068884201D1012000E0002028B12068EE
:101C5000406C40F4004021684864D24920688842C2
:101C600013D02068B0F1804F0FD0CF492068884250
:101C70000BD0CE492068884207D0CD4920688842E1
:101C800003D0CC49206888420DD12068806800F0DC
:101C90000709B9F1060F0CD02068006840F0010078
:101CA0002168086005E02068006840F001002168B4
:101CB00008604046FFE670B504460D46002635B183
:101CC000042D0ED0082D16D00C2D28D11DE0206833
:101CD000C06820F400702168C860606A04F036FFB4
:101CE0001FE02068C06820F480602168C860A06A96
:101CF00004F02CFF15E02068C06820F40060216823
:101D0000C860E06A04F022FF0BE02068C06820F49D
:101D100080502168C860206B04F018FF01E00126A4
:101D200000BF00BF002E46D1002229462068FFF7E1
:101D3000A6F89C492068884201D1012000E00020DB
:101D400090B100BF2068006A41F21111084050B9FB
:101D50002068006A8910084028B92068406C20F487
:101D600000402168486400BF00BF2068006A41F25B
:101D70001111084050B92068006A8910084028B93C
:101D80002068006820F001002168086000BF1DB9CC
:101D9000012084F83E000EE0042D03D101213F20F4
:101DA000015508E0082D03D101214020015502E032
:101DB000012141200155304670BD704710B50446E1
:101DC0000CB9012010BD94F83D0028B9002084F81A
:101DD0003C002046FFF7F1FF022084F83D00211D62
:101DE0002068FEF799FD012084F8460000BF84F8C2
:101DF0003E0001213F200155402001554120015561
:101E000000BF00BF012084F8420043200155442058
:101E100001554520015500BF012084F83D000020F8
:101E2000D0E7704710B50446022084F83D0000BF9B
:101E30002068006A41F21111084050B92068006A18
:101E40008910084028B92068006820F00100216846
:101E5000086000BF2046FFF7E4FF002084F846003A
:101E600000BF84F83E0000213F200155402001556D
:101E70004120015500BF00BF002084F842004320EC
:101E80000155442001554520015500BF002084F82C
:101E90003D0000BF84F83C0000BF10BD2DE9F041BB
:101EA00004460D4615B994F83E000BE0042D02D10E
:101EB0003F20005D06E0082D02D14020005D01E0DA
:101EC0004120005D074615B994F842000BE0042D4F
:101ED00002D14320005D06E0082D02D14420005DC0
:101EE00001E04520005D8046012F02D1B8F1010FCD
:101EF00002D00120BDE8F0811DB9022084F83E0027
:101F00000EE0042D03D102213F20015508E0082DE9
:101F100003D102214020015502E002214120015558
:101F20001DB9022084F842000EE0042D03D10221E5
:101F30004320015508E0082D03D10221442001551A
:101F400002E0022145200155012229462068FEF7C2
:101F500096FF14492068884213D02068B0F1804F62
:101F60000FD01149206888420BD010492068884260
:101F700007D00F492068884203D00E492068884264
:101F80001AD12068806800F00706062E1AD0206853
:101F9000006840F001002168086013E06712000843
:101FA000E30B00080000014000040040000800406E
:101FB000000C0040004001402068006840F0010033
:101FC00021680860002095E730B504460D460022E0
:101FD00029462068FEF753FF00BF2068006A41F2DF
:101FE0001111084050B92068006A8910084028B9CA
:101FF0002068006820F001002168086000BF1DB95A
:10200000012084F83E000EE0042D03D101213F2081
:10201000015508E0082D03D101214020015502E0BF
:102020000121412001551DB9012084F842000EE034
:10203000042D03D101214320015508E0082D03D1CF
:1020400001214420015502E00121452001550020D5
:1020500030BD2DE9F04304460D46002615B994F82D
:102060003E000BE0042D02D13F20005D06E0082D6C
:1020700002D14020005D01E04120005D804615B99D
:1020800094F842000BE0042D02D14320005D06E0ED
:10209000082D02D14420005D01E04520005D81460D
:1020A000B8F1010F02D1B9F1010F02D00120BDE852
:1020B000F0831DB9022084F83E000EE0042D03D108
:1020C00002213F20015508E0082D03D102214020C4
:1020D000015502E00221412001551DB9022084F87A
:1020E00042000EE0042D03D102214320015508E0F7
:1020F000082D03D102214420015502E00221452090
:10210000015535B1042D0BD0082D10D00C2D1CD14C
:1021100014E02068C06840F002002168C86016E042
:102120002068C06840F004002168C8600FE02068A3
:10213000C06840F008002168C86008E02068C068F6
:1021400040F010002168C86001E0012600BF00BF18
:1021500046BB012229462068FEF791FEFE49206811
:10216000884213D02068B0F1804F0FD0FB4920681F
:1021700088420BD0FA492068884207D0F949206884
:10218000884203D0F849206888420CD120688068D2
:1021900000F00707062F0CD02068006840F001000F
:1021A0002168086005E02068006840F001002168AF
:1021B000086030467BE770B504460D46002635B111
:1021C000042D0BD0082D10D00C2D1CD114E020684C
:1021D000C06820F002002168C86016E02068C0686E
:1021E00020F004002168C8600FE02068C06820F07B
:1021F00008002168C86008E02068C06820F010006E
:102200002168C86001E0012600BF00BF002E3FD159
:10221000002229462068FEF732FE00BF2068006ACF
:1022200041F21111084050B92068006A8910084035
:1022300028B92068006820F001002168086000BF0C
:102240001DB9012084F83E000EE0042D03D10121C8
:102250003F20015508E0082D03D101214020015500
:1022600002E00121412001551DB9012084F84200FE
:102270000EE0042D03D101214320015508E0082D73
:1022800003D101214420015502E0012145200155DF
:10229000304670BD704770B50546AC6B606AA842A9
:1022A00002D10120207710E0A06AA84202D10220CA
:1022B00020770AE0E06AA84202D10420207704E0F7
:1022C000206BA84201D1082020772046FFF7E2FFCB
:1022D0000020207770BD704770B50546AC6B606A12
:1022E000A8420AD101202077E86900282BD10120DB
:1022F00084F83E0084F8420025E0A06AA84209D193
:1023000002202077E869F0B901213F2001554320E0
:10231000015518E0E06AA84209D104202077E86955
:1023200088B9012140200155442001550BE0206B64
:10233000A84208D108202077E86920B9012141206E
:102340000155452001552046FFF7C5FF00202077A5
:1023500070BD2DE9F05F04460D4616461F464FF04E
:10236000000B15B994F83E000BE0042D02D13F207C
:10237000005D06E0082D02D14020005D01E0412013
:10238000005D814615B994F842000BE0042D02D19E
:102390004320005D06E0082D02D14420005D01E0ED
:1023A0004520005D8246B9F1020F02D0BAF1020F5A
:1023B00002D10220BDE8F09FB9F1010F2FD1BAF18F
:1023C000010F2CD106B10FB90120F3E71DB902208E
:1023D00084F83E000EE0042D03D102213F20015578
:1023E00008E0082D03D102214020015502E002211E
:1023F000412001551DB9022084F8420011E0042D4E
:1024000003D10221432001550BE0082D03D1022105
:102410004420015505E002214520015501E001203D
:10242000C8E7012229462068FEF729FD35B1042DB1
:1024300021D0082D3CD00C2D75D156E0AFF267119C
:10244000606AC163AFF2B111606A01644749606AB2
:10245000C164226802F134013B463246606A04F0EE
:10246000D2FA08B10120A5E72068C06840F40070E6
:102470002168C8605AE0AFF29F11A06AC163AFF251
:10248000E911A06A01643949A06AC164226802F1B5
:1024900038013B463246A06A04F0B5FA08B1012083
:1024A00088E72068C06840F480602168C8603DE02B
:1024B000AFF2DB11E06AC163AFF22521E06A01648B
:1024C0002A49E06AC164226802F13C013B46324677
:1024D000E06A04F098FA08B101206BE72068C06850
:1024E00040F400602168C86020E0AFF21321206B47
:1024F000C163AFF25D21206B01641C49206BC16494
:10250000226802F140013B463246206B04F07BFA20
:1025100008B101204EE72068C06840F4805021686F
:10252000C86003E0FFE74FF0010B00BF00BF0A499E
:102530002068884220D02068B0F1804F1CD0074925
:102540002068884218D006492068884214D005497E
:102550002068884210D00BE00000014000040040D9
:1025600000080040000C004000400140E30B000860
:10257000FE49206888420DD12068806800F0070875
:10258000B8F1060F0CD02068006840F00100216807
:10259000086005E02068006840F0010021680860DC
:1025A000584607E770B504460D4600260022294626
:1025B0002068FEF764FC35B1042D0ED0082D16D02E
:1025C0000C2D28D11DE02068C06820F4007021681F
:1025D000C860606A04F0BAFA1FE02068C06820F49E
:1025E00080602168C860A06A04F0B0FA15E0206835
:1025F000C06820F400602168C860E06A04F0A6FAB0
:102600000BE02068C06820F480502168C860206B0F
:1026100004F09CFA01E0012600BF00BF56BB00BFDA
:102620002068006A41F21111084050B92068006A20
:102630008910084028B92068006820F0010021684E
:10264000086000BF1DB9012084F83E000EE0042D93
:1026500003D101213F20015508E0082D03D10121BC
:102660004020015502E00121412001551DB9012002
:1026700084F842000EE0042D03D1012143200155CE
:1026800008E0082D03D101214420015502E0012179
:1026900045200155304670BD704770B504460D4663
:1026A0000CB9012070BD94F83D0028B9002084F8D1
:1026B0003C002046FFF7F0FF022084F83D00211D7A
:1026C0002068FEF729F92068006820F008002168DA
:1026D000086020680068284321680860012084F8A9
:1026E000460084F83E0001213F200155012084F876
:1026F000420043200155012084F83D000020D1E72D
:10270000704710B50446022084F83D0000BF2068E1
:10271000006A41F21111084050B92068006A89101E
:10272000084028B92068006820F00100216808608E
:1027300000BF2046FFF7E4FF002084F8460084F83D
:102740003E0000213F200155002084F84200432034
:102750000155002084F83D0000BF84F83C0000BF14
:1027600010BD2DE9F0430446894694F83E503F20C1
:10277000065D94F84270432010F80480012D06D1C4
:10278000012E04D1012F02D1B8F1010F02D0012096
:10279000BDE8F083022084F83E0002213F2001556D
:1027A000022084F8420043200155012200212068C4
:1027B000FEF765FB012204212068FEF760FB6C49EF
:1027C0002068884201D1012000E0002028B1206863
:1027D000406C40F40040216848640020D8E730B5E0
:1027E00004460D46002211462068FEF748FB0022F1
:1027F00004212068FEF743FB5D492068884201D12F
:10280000012000E0002090B100BF2068006A41F282
:102810001111084050B92068006A8910084028B991
:102820002068406C20F400402168486400BF00BF6D
:102830002068006A41F21111084050B92068006A0E
:102840008910084028B92068006820F0010021683C
:10285000086000BF012084F83E0001213F2001559F
:10286000012084F8420043200155002030BD2DE9AD
:10287000F0430446894694F83E503F20065D94F8A4
:102880004270432010F80480012D06D1012E04D19E
:10289000012F02D1B8F1010F02D00120BDE8F08371
:1028A000022084F83E0002213F200155022084F8D6
:1028B0004200432001552068C06840F002002168B2
:1028C000C8602068C06840F004002168C860012228
:1028D00000212068FEF7D3FA012204212068FEF7C8
:1028E000CEFA23492068884201D1012000E000206F
:1028F00028B12068406C40F4004021684864002002
:10290000CCE730B504460D462068C06820F00200D0
:102910002168C8602068C06820F004002168C86091
:10292000002211462068FEF7AAFA0022042120683E
:10293000FEF7A5FA0E492068884201D1012000E087
:10294000002090B100BF2068006A41F211110840D8
:1029500050B92068006A8910084028B92068406C86
:1029600020F400402168486400BF03E000400140BB
:102970000000014000BF2068006A41F211110840C8
:1029800050B92068006A8910084028B9206800689A
:1029900020F001002168086000BF012084F83E009B
:1029A00001213F200155012084F8420043200155B8
:1029B000002030BD70472DE9F04104460D4614B9A2
:1029C0000120BDE8F08194F83D0028B9002084F88A
:1029D0003C002046FFF7EEFF022084F83D0020680F
:1029E000806844F20701884321688860211D2068BF
:1029F000FDF792FF2068D0F808802068866920687B
:102A0000076A286840EA080840F203308643A9694B
:102A1000A86840EA0120064340F60C4086434FF286
:102A2000F0008643E969E86840EA01200643286926
:102A30000001296A40EA0130064327F0220727F007
:102A400088076969686840EA011007432068C0F890
:102A500008802068866120680762012084F84600AB
:102A600084F83E0001213F200155012084F84200F6
:102A700043200155012084F83D000020A1E7704764
:102A800010B50446022084F83D0000BF2068006AAB
:102A900041F21111084050B92068006A89100840BD
:102AA00028B92068006820F001002168086000BF94
:102AB0002046FFF7E4FF002084F8460084F83E003B
:102AC00000213F200155002084F842004320015599
:102AD000002084F83D0000BF84F83C0000BF10BD1A
:102AE0002DE9F04304460D4694F83E603F20075D13
:102AF00094F84280432010F804906DB9012E02D161
:102B0000B8F1010F02D00120BDE8F083022084F863
:102B10003E0084F8420025E0042D0CD1012F02D1A3
:102B2000B9F1010F01D00120EEE702213F2001554C
:102B30004320015516E0012E07D1012F05D1B8F130
:102B4000010F02D1B9F1010F01D00120DCE7022011
:102B500084F83E0002213F200155022084F8420003
:102B60004320015515B1042D0CD105E001220021AF
:102B70002068FEF784F910E0012204212068FEF7A6
:102B80007EF90AE0012200212068FEF778F901228F
:102B900004212068FEF773F900BF00BF20680068B9
:102BA00040F00100216808600020ADE730B5044620
:102BB0000D4615B1042D0CD105E000221146206808
:102BC000FEF75DF910E0002204212068FEF757F9B6
:102BD0000AE0002211462068FEF751F90022042184
:102BE0002068FEF74CF900BF00BF00BF2068006AF4
:102BF00041F21111084050B92068006A891008405C
:102C000028B92068006820F001002168086000BF32
:102C10000DB1042D28D11DB9012084F83E000EE02D
:102C2000042D03D101213F20015508E0082D03D1D7
:102C300001214020015502E00121412001551DB92B
:102C4000012084F842001AE0042D03D10121432021
:102C5000015514E0082D03D10121442001550EE057
:102C60000121452001550AE0012084F83E000121A0
:102C70003F200155012084F84200432001550020E7
:102C800030BD2DE9F04304460D4694F83E603F20E8
:102C9000075D94F84280432010F804906DB9012E2E
:102CA00002D1B8F1010F02D00120BDE8F08302206B
:102CB00084F83E0084F8420025E0042D0CD1012F59
:102CC00002D1B9F1010F01D00120EEE702213F202E
:102CD00001554320015516E0012E07D1012F05D1E2
:102CE000B8F1010F02D1B9F1010F01D00120DCE7E9
:102CF000022084F83E0002213F200155022084F882
:102D000042004320015515B1042D18D10BE00122DA
:102D100000212068FEF7B3F82068C06840F0020088
:102D20002168C86022E0012204212068FEF7A7F88C
:102D30002068C06840F004002168C86016E00122E5
:102D400000212068FEF79BF8012204212068FEF78D
:102D500096F82068C06840F002002168C8602068CA
:102D6000C06840F004002168C86000BF00BF206850
:102D7000006840F0010021680860002095E730B548
:102D800004460D465DB9002211462068FEF777F82B
:102D90002068C06820F002002168C86023E0042D8C
:102DA0000BD1002204212068FEF769F82068C06872
:102DB00020F004002168C86015E000221146206858
:102DC000FEF75DF8002204212068FEF758F820681D
:102DD000C06820F002002168C8602068C06820F048
:102DE00004002168C86000BF2068006A41F2111128
:102DF000084050B92068006A8910084028B9206846
:102E0000006820F001002168086000BF0DB1042DAA
:102E100028D11DB9012084F83E000EE0042D03D115
:102E200001213F20015508E0082D03D10121402058
:102E3000015502E00121412001551DB9012084F80E
:102E400042001AE0042D03D101214320015514E072
:102E5000082D03D10121442001550EE00121452018
:102E600001550AE0012084F83E0001213F20015570
:102E7000012084F8420043200155002030BD2DE997
:102E8000FF5F04460D461E460E9F94F83E803F208D
:102E900010F8049094F842A0432010F804B0E5B96B
:102EA000B8F1020F02D0BAF1020F03D1022004B030
:102EB000BDE8F09FB8F1010F0DD1BAF1010F0AD1B1
:102EC000029800B10FB90120F1E7022084F83E001A
:102ED00084F842004BE00120E9E7042D19D1B9F153
:102EE000020F02D0BBF1020F01D10220DFE7B9F1DE
:102EF000010F0CD1BBF1010F09D106B10FB90120AF
:102F0000D5E702213F200155432001552FE0012044
:102F1000CDE7B8F1020F08D0B9F1020F05D0BAF130
:102F2000020F02D0BBF1020F01D10220BFE7B8F1BE
:102F3000010F1AD1B9F1010F17D1BAF1010F14D154
:102F4000BBF1010F11D1029808B106B10FB90120F0
:102F5000ADE7022084F83E0002213F200155022007
:102F600084F842004320015501E001209FE715B19C
:102F7000042D50D127E0AFF69F41606AC163AFF6E0
:102F8000E941606A0164FD49606AC164226802F136
:102F900034013B46606A029A03F035FD08B1012016
:102FA00085E72068C06840F400702168C86001228D
:102FB00000212068FDF763FF2068006840F00100F1
:102FC0002168086070E0AFF6EF41A06AC163AFF618
:102FD0003951A06A0164E949A06AC164226802F11A
:102FE00038013B463246A06A03F00DFD08B10120CE
:102FF0005DE72068C06840F480602168C8600122F5
:1030000004212068FDF73BFF2068006840F00100C4
:103010002168086048E0AFF63F51606AC163AFF6CF
:103020008951606A0164D549606AC164226802F10D
:1030300034013B46606A029A03F0E5FC08B10120C6
:1030400035E7AFF66B51A06AC163AFF6B551A06A20
:103050000164CA49A06AC164226802F138013B4692
:103060003246A06A03F0CFFC08B101201FE72068B8
:10307000C06840F400702168C8602068C06840F4EF
:1030800080602168C860012200212068FDF7F7FEFA
:10309000012204212068FDF7F2FE2068006840F05C
:1030A00001002168086000BF00BF0020FFE670B586
:1030B00004460D4675B9002211462068FDF7DFFE73
:1030C0002068C06820F400702168C860606A03F05E
:1030D0003DFD2CE0042D0ED1002204212068FDF7D7
:1030E000CEFE2068C06820F480602168C860A06AB5
:1030F00003F02CFD1BE0002211462068FDF7BFFE07
:10310000002204212068FDF7BAFE2068C06820F480
:1031100000702168C8602068C06820F48060216861
:10312000C860606A03F012FDA06A03F00FFD00BFE3
:103130002068006A41F21111084050B92068006A05
:103140008910084028B92068006820F00100216833
:10315000086000BF0DB1042D28D11DB9012084F8ED
:103160003E000EE0042D03D101213F20015508E06F
:10317000082D03D101214020015502E00121412009
:1031800001551DB9012084F842001AE0042D03D135
:1031900001214320015514E0082D03D101214420D1
:1031A00001550EE00121452001550AE0012084F877
:1031B0003E0001213F200155012084F842004320B8
:1031C0000155002070BD7047704770B504462068F7
:1031D000C5682068066906F00200022819D105F0CA
:1031E0000200022815D1401F2168086101202077C4
:1031F0002068806900F0030018B12046FFF76BF8E3
:1032000005E02046FFF7E0FF2046FEF72BF8002000
:10321000207706F00400042819D105F004000428E2
:1032200015D1C04321680861022020772068806999
:1032300000F4407018B12046FFF74DF805E0204635
:10324000FFF7C2FF2046FEF70DF80020207706F0BA
:103250000800082819D105F00800082815D1C04336
:1032600021680861042020772068C06900F003000D
:1032700018B12046FFF72FF805E02046FFF7A4FF1E
:103280002046FDF7EFFF0020207706F01000102801
:1032900019D105F01000102815D1C043216808612C
:1032A000082020772068C06900F4407018B12046DB
:1032B000FFF711F805E02046FFF786FF2046FDF7EF
:1032C000D1FF0020207706F0010048B105F0010091
:1032D00030B16FF00100216808612046FDF74EF81B
:1032E00006F08000802809D105F08000802805D1F3
:1032F000C04321680861204602F0A6FB06F04000AA
:10330000402809D105F04000402805D1C04321687C
:1033100008612046FFF757FF06F02000202809D15A
:1033200005F02000202805D1C0432168086120460F
:1033300002F09FFA70BD30B5036A056A25F4805526
:1033400005624468C26922F4E04222F440720D68CA
:1033500042EA052223F400538D6843EA0533084D01
:10336000A84204D124F480444D6944EA85144460A1
:10337000C2614D680564036230BD0000E30B0008C4
:103380000000014030B5026A056A25F480750562C7
:103390004368C46924F0700424F003040D682C43CE
:1033A00022F400728D6842EA0522FB4DA84207D143
:1033B00000BF22F40062CD6842EA052222F4806256
:1033C000F54DA84209D123F4805323F400534D69ED
:1033D00043EA05138D6943EA05134360C4614D68F0
:1033E000C563026230BD30B5026A056A25F010057A
:1033F00005624368846924F4E04424F440740D6851
:1034000044EA052422F020028D6842EA0512E24DCA
:10341000A84207D100BF22F08002CD6842EA05121F
:1034200022F04002DC4DA84209D123F4806323F44A
:1034300000634D6943EA85038D6943EA8503436070
:1034400084614D688563026230BD30B5026A056AE9
:1034500025F0010505624368846924F0700424F0B6
:1034600003040D682C4322F002028D682A43CA4DE2
:10347000A84206D100BF22F00802CD682A4322F0FC
:103480000402C54DA84207D123F4807323F40073CE
:103490004D692B438D692B43436084614D684563BF
:1034A000026230BD2DE9F04104460E461546002764
:1034B00000BF94F83C00012802D10220BDE8F08151
:1034C000012084F83C0000BF35B1042D09D0082D3F
:1034D0000CD00C2D14D10EE031462068FFF7B5FF5B
:1034E00010E031462068FFF77EFF0BE03146206890
:1034F000FFF748FF06E031462068FFF71CFF01E0B8
:10350000012700BF00BF00BF002084F83C0000BFBF
:103510003846D3E770B50C461546026A066A26F4AB
:1035200080560662C16921F4407141EA052121F407
:1035300070414FF4704606EA0336314322F42042CC
:103540004FF4204606EA04363243C161026270BD80
:1035500070B50C461546026A066A26F48076066245
:10356000C16921F00301294321F0F001F02606EAA8
:103570000316314322F420624FF4206606EA042643
:103580003243C161026270BD70B50C461546026AD5
:10359000066A26F010060662816921F4407141EA4C
:1035A000052121F470414FF4704606EA0336314399
:1035B00022F0A002A02606EA0416324381610262CC
:1035C00070BD70B50C461546026A066A26F0010603
:1035D00006628169704EB0420ED0B0F1804F0BD0C0
:1035E0006E4EB04208D06E4EB04205D06D4EB04225
:1035F00002D06D4EB04201D1012600E000261EB17E
:1036000021F00301294301E041F0010121F0F00123
:10361000F02606EA0316314322F00A0204F00A06F5
:1036200032438161026270BD2DE9F04104460D46CE
:103630001646002700BF94F83C00012802D1022062
:10364000BDE8F081012084F83C0000BF96B9EB682A
:10365000D5E900122068FFF7B4FF2068806920F0E8
:103660000C002168886120688069A9680843216886
:10367000886141E0042E13D1EB68D5E9001220687F
:10368000FFF782FF2068806920F44060216888612C
:1036900020688069A96840EA0120216888612BE0E0
:1036A000082E12D1EB68D5E900122068FFF750FF11
:1036B0002068C06920F00C002168C8612068C069DA
:1036C000A96808432168C86116E00C2E13D1EB6885
:1036D000D5E900122068FFF71DFF2068C06920F4BB
:1036E00040602168C8612068C069A96840EA01207B
:1036F0002168C86100E0012700BF002084F83C0079
:1037000000BF38469CE72DE9F04104460D461646B9
:10371000002700BF94F83C00012802D10220BDE838
:10372000F081012084F83C0000BF36B1042E1BD08C
:10373000082E3BD00C2E68D14FE029462068FFF7B9
:1037400084FE2068806940F0080021688861206854
:10375000806920F0040021688861206880692969F7
:1037600008432168886152E029462068FFF73BFE44
:103770002068806940F40060216888612068806961
:1037800020F480602168886120688069296940EAA6
:103790000120216888613AE00000014000040040F7
:1037A00000080040000C004000400140294620680D
:1037B000FFF7E8FD2068C06940F008002168C86193
:1037C0002068C06920F004002168C8612068C069D1
:1037D000296908432168C86119E029462068FFF774
:1037E000AAFD2068C06940F400602168C8612068B3
:1037F000C06920F480602168C8612068C0692969B7
:1038000040EA01202168C86101E0012700BF00BF34
:1038100000BF002084F83C0000BF38467FE72DE958
:10382000F04188B004460D4616461F464FF000088A
:10383000BE427DD000BF94F83C00012803D1022095
:1038400008B0BDE8F081012084F83C0000BF0220F0
:1038500084F83D002868019068680290A868039089
:10386000E8680490286906906869079016B1042EEC
:103870000AD104E001A92068FFF7E7FD07E001A9EC
:103880002068FFF7B0FD02E04FF0010800BF00BF65
:10389000B8F1000F53D117B1042F4CD124E0D5E972
:1038A0000723A9692068FFF78CFE2068806920F053
:1038B0000C00216888612068806820F07000216811
:1038C00088602068806840F0500021688860206827
:1038D000806820F00700216888602068806840F0D8
:1038E00006002168886029E0D5E90723A9692068D6
:1038F000FFF74AFE2068806920F4406021688861F3
:103900002068806820F070002168886020688068E6
:1039100040F06000216888602068806820F007001F
:10392000216888602068806840F00600216800E017
:103930000FE0886002E04FF0010800BF00BF0120E7
:1039400084F83D0000BF002084F83C0000BF4046E2
:1039500076E7012074E7704770B50446A56B2846EA
:10396000FFF7F9FF70BD70B50546AC6BA06BC06981
:1039700010B9012084F83D002046FFF724FC70BDFB
:103980002DE9F04704460F4615461E46DDE9088A34
:103990004FF0000994F84600022801D1BDE8F087F5
:1039A00094F84600012807D11EB9B8F1000F00D0E5
:1039B000F4E7022084F84600B5F5006F53D009DC27
:1039C000B5F5807F10D0B5F5007F22D0B5F5806FBA
:1039D00072D133E0B5F5805F5AD0B5F5005F6ED097
:1039E000B5F5804FF4D17FE0F848216AC863F84804
:1039F000216A0864F748216AC864216801F14C0211
:103A000053463146206A02F0FEFF08B10120C5E7A7
:103A100082E0F149606AC163F049606A0164ED497E
:103A2000606AC164216801F14C0253463146606A04
:103A300002F0E9FF08B10120B0E76DE0E649A06AB5
:103A4000C163E649A06A0164E249A06AC1642168D1
:103A500001F14C0253463146A06A02F0D4FF08B18E
:103A600001209BE758E0DC49E06AC163DB49E06A7A
:103A70000164D849E06AC164216801F14C025346EF
:103A80003146E06A02F0BFFF08B1012086E743E05B
:103A9000D149206BC163D149206B0164CD49206BB2
:103AA000C164216801F14C0253463146206B02F09B
:103AB000AAFF18B1012071E72BE000E02CE0C84913
:103AC000606BC163C749606B0164C249606BC164CC
:103AD000216801F14C0253463146606B02F093FFBE
:103AE00008B101205AE717E0BF49A06BC163BF4985
:103AF000A06B0164B749A06BC164216801F14C025D
:103B000053463146A06B02F07EFF08B1012045E725
:103B100002E04FF0010900BF00BFB9F1000F08D16A
:103B200047EA0800216888642068C0682843216843
:103B3000C860484632E72DE9FC4705460E46174661
:103B400098460A9C200A401C43463A463146CDE935
:103B500000402846FFF714FF81464846BDE8FC8731
:103B600070B504460D460026B5F5006F20D009DC7F
:103B7000B5F5807F10D0B5F5007F11D0B5F5806F19
:103B800026D111E0B5F5805F16D0B5F5005F17D0EE
:103B9000B5F5804F1CD117E0206A02F0D7FF19E07D
:103BA000606A02F0D3FF15E0A06A02F0CFFF11E0D7
:103BB000E06A02F0CBFF0DE0206B02F0C7FF09E0E6
:103BC000606B02F0C3FF05E0A06B02F0BFFF01E0F5
:103BD000012600BF00BF3EB92068C068A843216825
:103BE000C860012084F84600304670BD2DE9F047DA
:103BF00004460F4615461E46DDE9088A4FF00009C7
:103C000094F84600022801D1BDE8F08794F84600F8
:103C1000012807D11EB9B8F1000F00D0F4E7022047
:103C200084F84600B5F5006F53D009DCB5F5807F08
:103C300010D0B5F5007F22D0B5F5806F72D133E09A
:103C4000B5F5805F5AD0B5F5005F6ED0B5F5804F01
:103C5000F4D17FE05D48216AC8635D48216A086449
:103C60005C48216AC864226802F14C01534632461E
:103C7000206A02F0C8FE08B10120C5E782E05C4975
:103C8000606AC1635B49606A01645249606AC164E9
:103C9000226802F14C0153463246606A02F0B3FEDC
:103CA00008B10120B0E76DE05149A06AC1635149F4
:103CB000A06A01644749A06AC164226802F14C010C
:103CC00053463246A06A02F09EFE08B101209BE7EF
:103CD00058E04749E06AC1634649E06A01643D49EA
:103CE000E06AC164226802F14C0153463246E06A40
:103CF00002F089FE08B1012086E743E03C49206BD1
:103D0000C1633C49206B01643249206BC164226865
:103D100002F14C0153463246206B02F074FE18B19A
:103D2000012071E72BE000E02CE02D49606BC163BE
:103D30002C49606B01642749606BC164226802F101
:103D40004C0153463246606B02F05DFE08B1012023
:103D50005AE717E02449A06BC1632449A06B0164B2
:103D60001C49A06BC164226802F14C0153463246E3
:103D7000A06B02F048FE08B1012045E702E04FF0D9
:103D8000010900BF00BFB9F1000F08D147EA0800E0
:103D9000216888642068C06828432168C860484654
:103DA00032E72DE9FC4705460E46174698460A9C21
:103DB000200A401C43463A463146CDE90040284699
:103DC000FFF714FF81464846BDE8FC87530C000806
:103DD000430C0008E30B00086712000825120008D6
:103DE000755800085F5800086739000859390008FD
:103DF000D92200089722000870B504460D46002617
:103E0000B5F5006F20D009DCB5F5807F10D0B5F591
:103E1000007F11D0B5F5806F26D111E0B5F5805F38
:103E200016D0B5F5005F17D0B5F5804F1CD117E05F
:103E3000206A02F08BFE19E0606A02F087FE15E04E
:103E4000A06A02F083FE11E0E06A02F07FFE0DE05E
:103E5000206B02F07BFE09E0606B02F077FE05E06C
:103E6000A06B02F073FE01E0012600BF00BF3EB967
:103E70002068C068A8432168C860012084F8460013
:103E8000304670BD024600BF92F83C00012801D1C7
:103E900002207047012082F83C0000BF022082F817
:103EA0003D0010684161012082F83D0000BF002004
:103EB00082F83C0000BF00BFEBE730B50C468168DC
:103EC00021F47F4142EA032525432943816030BD27
:103ED000F0B504460D461646002700BF94F83C0096
:103EE000012801D10220F0BD012084F83C0000BF70
:103EF000022084F83D00686810B101281AD106E05C
:103F00002068806820F47F402168886014E0E868B9
:103F100048B1012084F83D0000BF002084F83C0037
:103F200000BF0120DFE7D5E90313AA682068FFF787
:103F3000C4FF01E0012700BF00BF002F49D136B107
:103F4000042E14D0082E22D00C2E40D12FE0286849
:103F500030B12068806940F080002168886105E008
:103F60002068806920F080002168886130E028683E
:103F700030B12068806940F400402168886105E024
:103F80002068806920F400402168886120E028686A
:103F900030B12068C06940F080002168C86105E048
:103FA0002068C06920F080002168C86110E028689E
:103FB00030B12068C06940F400402168C86105E064
:103FC0002068C06920F400402168C86100E000BF9B
:103FD00000BF012084F83D0000BF002084F83C00B1
:103FE00000BF38467FE70A46816821F0700142F041
:103FF000070319438160704730B50B461446026AC7
:10400000056A25F001050562816921F0F00141EAA8
:10401000041122F00A021A438161026230BD30B5F8
:104020000B461446026A056A25F01005056281698F
:1040300021F4704141EA043122F0A00242EA031265
:104040008161026230BD2DE9F04104460D46002732
:1040500000BF94F83C00012802D10220BDE8F081A5
:10406000012084F83C0000BF022084F83D00206855
:10407000866826F0770626F47F46206886602868E2
:10408000502833D00CDC202850D004DC00284BD042
:10409000102851D149E0302849D040284CD139E08E
:1040A00060282DD0702807D0B0F5805F03D0B0F520
:1040B000005F41D10DE041E0D5E902136A68206854
:1040C000FFF7FBFE2068866846F07706206886606A
:1040D00034E0D5E902136A682068FFF7EEFE206835
:1040E000806840F480402168886027E0EA68696859
:1040F0002068FFF781FF50212068FFF774FF1DE063
:10410000EA6869682068FFF78AFF60212068FFF786
:104110006AFF13E0EA6869682068FFF76DFF4021D5
:104120002068FFF760FF09E000BF00BF00BF2968FB
:104130002068FFF758FF01E0012700BF00BF012002
:1041400084F83D0000BF002084F83C0000BF3846E2
:1041500084E702460B461068416821F0800119434C
:1041600010684160002070472DE9F04705460C4675
:104170004FF000092868866826F0700660680643DC
:1041800026F007062068064328688660606800F00D
:104190000F0100293BD10011082838D2DFE800F0D8
:1041A000333435360B272D04D4E90313A26828686D
:1041B000FFF783FE2EE02068052802D10120BDE82C
:1041C000F0872868D0F820802868006A20F0010075
:1041D000296808622868876927F0F007206947EA9C
:1041E0000017286887612868C0F8208012E02269DB
:1041F000A1682868FFF700FF0CE02269A168286821
:10420000FFF70DFF06E000BF00BF00BF02E04FF068
:10421000010900BF00BF4846D1E770B504460D460E
:1042200000BF94F83C00012801D1022070BD01209C
:1042300084F83C0000BF022084F83D002946204657
:10424000FFF792FF48B1012084F83D0000BF002035
:1042500084F83C0000BF0120E8E72068C06820F037
:1042600040002168C8602068C06820F48040216850
:10427000C860012084F83D0000BF002084F83C00A5
:1042800000BF00BFD2E770B504460D4600BF94F8EA
:104290003C00012801D1022070BD012084F83C00BF
:1042A00000BF022084F83D0029462046FFF75CFF4E
:1042B00048B1012084F83D0000BF002084F83C0094
:1042C00000BF0120E8E72068C06840F04000216896
:1042D000C8602068C06820F480402168C860012060
:1042E00084F83D0000BF002084F83C0000BF00BF00
:1042F000D2E70246002031B1042907D0082908D0AE
:104300000C290CD108E01368586B09E01368986B0E
:1043100006E01368D86B03E01368186C00E000BF78
:1043200000BF7047014691F83D007047014691F883
:104330003D007047014691F83D007047014691F8F5
:104340003D007047014691F83D007047014691F8E5
:104350003D0070470146087F7047024611B992F848
:104360003E300BE0042902D13F239B5C06E0082984
:1043700002D140239B5C01E041239B5C18467047BF
:10438000014691F846007047704730B587B0044643
:104390000D4614B9012007B030BD94F83D0028B98E
:1043A000002084F83C002046FFF7EEFF022084F84E
:1043B0003D00211D2068FCF7AFFAAB682968032295
:1043C0002068FFF7FEF82068806920F00C00216863
:1043D000886120688069696808432168886120686D
:1043E000406840F08000216848602068806820F0C4
:1043F0007000216888602068806840F04000216873
:1044000088602068806820F0070021688860206844
:10441000806840F0040021688860002004900590C6
:10442000702000900020069003900290E8680190B0
:1044300069462068FEF7D7FF2068406820F07000CA
:10444000216848602068406840F05000216848605A
:10445000012084F8460084F83E0001213F200155E8
:10446000012084F8420043200155012084F83D00DA
:10447000002090E7704710B50446022084F83D0004
:1044800000BF2068006A41F21111084050B920684D
:10449000006A8910084028B92068006820F00100EF
:1044A0002168086000BF2046FFF7E4FF002084F881
:1044B000460084F83E0000213F200155002084F88A
:1044C000420043200155002084F83D0000BF84F8DD
:1044D0003C0000BF10BD2DE9F047044694F83E6053
:1044E0003F20075D94F84280432010F80490012E8D
:1044F00007D1012F05D1B8F1010F02D1B9F1010F98
:1045000002D00120BDE8F087022084F83E0002219D
:104510003F200155022084F842004320015501222A
:1045200000212068FCF7ABFCFE492068884213D0CC
:104530002068B0F1804F0FD0FB49206888420BD033
:10454000FA492068884207D0F9492068884203D098
:10455000F849206888420CD12068806800F007057F
:10456000062D0CD02068006840F00100216808602A
:1045700005E02068006840F0010021680860002024
:10458000C0E710B50446002211462068FCF777FC0E
:1045900000BF2068006A41F21111084050B920683C
:1045A000006A8910084028B92068006820F00100DE
:1045B0002168086000BF012084F83E0001213F20EF
:1045C0000155012084F8420043200155002010BD10
:1045D0002DE9F047044694F83E603F20075D94F8CB
:1045E0004280432010F80490012E07D1012F05D1FD
:1045F000B8F1010F02D1B9F1010F02D00120BDE8DD
:10460000F087022084F83E0002213F20015502205D
:1046100084F84200432001552068C06840F0020041
:104620002168C860012200212068FCF728FCBD49F0
:104630002068884213D02068B0F1804F0FD0BA496B
:10464000206888420BD0B9492068884207D0B84911
:104650002068884203D0B749206888420CD120687E
:10466000806800F00705062D0CD02068006840F037
:1046700001002168086005E02068006840F0010042
:10468000216808600020BAE710B5044600221146F0
:104690002068FCF7F4FB2068C06820F00200216865
:1046A000C86000BF2068006A41F21111084050B98B
:1046B0002068006A8910084028B92068006820F046
:1046C00001002168086000BF012084F83E0001213C
:1046D0003F200155012084F842004320015500206D
:1046E00010BD2DE9F04704460D46164694F83E806D
:1046F00094F84290B8F1020F02D0B9F1020F02D142
:104700000220BDE8F087B8F1010F0CD1B9F1010F1B
:1047100009D105B10EB90120F3E7022084F83E006B
:1047200084F8420001E00120EBE70122002120682B
:10473000FCF7A5FB8049606AC1638049606A016437
:104740007F49606AC164226802F1340133462A4617
:10475000606A02F058F908B10120D2E72068C06809
:1047600040F400702168C8606E492068884213D008
:104770002068B0F1804F0FD06B49206888420BD081
:104780006A492068884207D069492068884203D076
:104790006849206888420CD12068806800F00707CB
:1047A000062F0CD02068006840F0010021680860E6
:1047B00005E02068006840F00100216808600020E2
:1047C0009FE710B50446002211462068FCF757FB0E
:1047D0002068C06820F400702168C860606A02F038
:1047E000B5F900BF2068006A41F21111084050B9C4
:1047F0002068006A8910084028B92068006820F005
:1048000001002168086000BF012084F83E0084F8A0
:104810004200002010BD30B501F00F05042404FA59
:1048200005F3046A9C430462046A01F00F0502FA6E
:1048300005F52C43046230BD70B504460D4615B92C
:1048400094F842000BE0042D02D14320005D06E005
:10485000082D02D14420005D01E04520005D0128C3
:1048600001D0012070BD1DB9022084F842000EE085
:10487000042D03D102214320015508E0082D03D166
:1048800002214420015502E0022145200155042265
:1048900029462068FFF7BFFF2068406C40F40040C5
:1048A000216848641F492068884213D02068B0F10D
:1048B000804F0FD01C49206888420BD01B492068CC
:1048C000884207D01A492068884203D019492068D5
:1048D00088420CD12068806800F00706062E0CD0B4
:1048E0002068006840F001002168086005E0206849
:1048F000006840F00100216808600020B2E770B550
:1049000004460D46002229462068FFF784FF00BFB9
:104910002068006A41F211110840D8B92068006A85
:1049200089100FE000000140000400400008004032
:10493000000C004000400140D922000897220008E6
:10494000E30B0008084028B92068406C20F40040C0
:104950002168486400BF00BF2068006A41F211115D
:10496000084050B92068006A8910084028B92068BA
:10497000006820F001002168086000BF1DB9012017
:1049800084F842000EE0042D03D10121432001559B
:1049900008E0082D03D101214420015502E0012146
:1049A00045200155002070BD2DE9F04104460D461B
:1049B000002615B994F842000BE0042D02D14320E3
:1049C000005D06E0082D02D14420005D01E0452095
:1049D000005D012802D00120BDE8F0811DB9022050
:1049E00084F842000EE0042D03D10221432001553A
:1049F00008E0082D03D102214420015502E00221E4
:104A00004520015525B1042D09D0082D15D10DE003
:104A10002068C06840F002002168C8600FE020688C
:104A2000C06840F004002168C86008E02068C068E1
:104A300040F008002168C86001E0012600BF00BF07
:104A4000A6BB2068C06840F080002168C8600422CE
:104A500029462068FFF7DFFE2068406C40F40040E4
:104A600021684864F9492068884213D02068B0F171
:104A7000804F0FD0F649206888420BD0F549206856
:104A8000884207D0F4492068884203D0F34920685F
:104A900088420CD12068806800F00707062F0CD0F0
:104AA0002068006840F001002168086005E0206887
:104AB000006840F001002168086030468CE72DE96D
:104AC000F04104460D46002625B1042D09D0082DDD
:104AD00015D10DE02068C06820F002002168C86090
:104AE0000FE02068C06820F004002168C86008E07A
:104AF0002068C06820F008002168C86001E0012635
:104B000000BF00BF002E4AD1002229462068FFF7CF
:104B100082FE2068076A40F24440384028B9206885
:104B2000C06820F080002168C86000BF2068006A6B
:104B300041F21111084050B92068006A89100840FC
:104B400028B92068406C20F400402168486400BF08
:104B500000BF2068006A41F21111084050B9206876
:104B6000006A8910084028B92068006820F0010018
:104B70002168086000BF1DB9012084F842000EE0E2
:104B8000042D03D101214320015508E0082D03D154
:104B900001214420015502E0012145200155304604
:104BA000BDE8F08170B50546AC6B606AA84204D1DF
:104BB0000120207784F8420010E0A06AA84205D1C5
:104BC0000220207701214320015507E0E06AA84236
:104BD00004D1042020770121442001552046FBF711
:104BE000FFFF0020207770BD70B50546AC6B606A92
:104BF000A84207D101202077E869C0B9012084F8D4
:104C0000420014E0A06AA84207D102202077E86998
:104C100068B901214320015509E0E06AA84206D1A4
:104C200004202077E86910B901214420015520466D
:104C3000FCF718FB0020207770BD2DE9F0470446F3
:104C40000D4616461F464FF0000815B994F842006D
:104C50000BE0042D02D14320005D06E0082D02D1B7
:104C60004420005D01E04520005D022801D1BDE83F
:104C7000F08715B994F842000BE0042D02D14320CF
:104C8000005D06E0082D02D14420005D01E04520D2
:104C9000005D012818D106B10FB90120E7E71DB961
:104CA000022084F8420011E0042D03D102214320A8
:104CB00001550BE0082D03D102214420015505E0E8
:104CC00002214520015501E00120D0E725B1042D46
:104CD0001DD0082D51D135E06149606AC163614939
:104CE000606A01646049606AC164216801F134024C
:104CF0003B463146606A01F086FE08B10120B6E706
:104D00002068C06840F400702168C86038E05449E9
:104D1000A06AC1635349A06A01645349A06AC1648F
:104D2000216801F138023B463146A06A01F06BFE72
:104D300008B101209BE72068C06840F480602168CA
:104D4000C8601DE04649E06AC1634649E06A016403
:104D50004549E06AC164216801F13C023B463146A5
:104D6000E06A01F050FE08B1012080E72068C068C9
:104D700040F400602168C86002E04FF0010800BF05
:104D800000BFB8F1000F36D1042229462068FFF792
:104D900042FD2068406C40F40040216848642B4983
:104DA0002068884213D02068B0F1804F0FD0284986
:104DB000206888420BD027492068884207D02649BE
:104DC0002068884203D02549206888420DD1206898
:104DD000806800F00709B9F1060F0CD02068006860
:104DE00040F001002168086005E02068006840F09C
:104DF000010021680860404639E770B504460D4659
:104E0000002625B1042D0CD0082D2FD113E02068E9
:104E1000C06820F400702168C860606A01F096FEE6
:104E200026E02068C06820F480602168C860A06A1D
:104E300001F08CFE1CE02068C06820F4006021684E
:104E4000C860E06A01F082FE12E00000000001404C
:104E50000004004000080040000C004000400140F9
:104E6000E94B000825120008A54B0008012600BFE9
:104E700000BF002E3ED1002229462068FFF7CBFC60
:104E800000BF2068006A41F21111084050B9206843
:104E9000006A8910084028B92068406C20F400405E
:104EA0002168486400BF00BF2068006A41F2111108
:104EB000084050B92068006A8910084028B9206865
:104EC000006820F001002168086000BF1DB90120C2
:104ED00084F842000EE0042D03D101214320015546
:104EE00008E0082D03D101214420015502E00121F1
:104EF00045200155304670BD70B504460D4615B9C4
:104F000094F842000BE0042D02D14320005D06E03E
:104F1000082D02D14420005D01E04520005D0128FC
:104F200001D0012070BD1DB9022084F842000EE0BE
:104F3000042D03D102214320015508E0082D03D19F
:104F400002214420015502E002214520015504229E
:104F500029462068FFF75FFC2068406C40F4004061
:104F600021684864F9492068884213D02068B0F16C
:104F7000804F0FD0F649206888420BD0F549206851
:104F8000884207D0F4492068884203D0F34920685A
:104F900088420CD12068806800F00706062E0CD0ED
:104FA0002068006840F001002168086005E0206882
:104FB000006840F00100216808600020B2E770B589
:104FC00004460D46002229462068FFF724FC00BF56
:104FD0002068006A41F21111084050B92068006A47
:104FE0008910084028B92068406C20F400402168EE
:104FF000486400BF00BF2068006A41F211110840F8
:1050000050B92068006A8910084028B920680068F3
:1050100020F001002168086000BF1DB9012084F85C
:1050200042000EE0042D03D101214320015508E088
:10503000082D03D101214420015502E00121452022
:105040000155002070BD2DE9F04104460D460026B3
:1050500015B994F842000BE0042D02D14320005D05
:1050600006E0082D02D14420005D01E04520005DEE
:10507000012802D00120BDE8F0811DB9022084F88A
:1050800042000EE0042D03D102214320015508E027
:10509000082D03D102214420015502E002214520C0
:1050A000015525B1042D09D0082D15D10DE020683A
:1050B000C06840F002002168C8600FE02068C06846
:1050C00040F004002168C86008E02068C06840F033
:1050D00008002168C86001E0012600BF00BFA6BB30
:1050E0002068C06840F080002168C860042229461A
:1050F0002068FFF790FB2068406C40F40040216876
:10510000486492492068884213D02068B0F1804FEB
:105110000FD08F49206888420BD08E492068884282
:1051200007D08D492068884203D08C492068884286
:105130000CD12068806800F00707062F0CD020688B
:10514000006840F001002168086005E02068006800
:1051500040F001002168086030468CE72DE9F041FD
:1051600004460D46002625B1042D09D0082D15D181
:105170000DE02068C06820F002002168C8600FE0E0
:105180002068C06820F004002168C86008E020683A
:10519000C06820F008002168C86001E0012600BF57
:1051A00000BF002E4AD1002229462068FFF733FBBA
:1051B0002068076A40F24440384028B92068C06837
:1051C00020F080002168C86000BF2068006A41F2BA
:1051D0001111084050B92068006A8910084028B9A8
:1051E0002068406C20F400402168486400BF00BF84
:1051F0002068006A41F21111084050B92068006A25
:105200008910084028B92068006820F00100216852
:10521000086000BF1DB9012084F842000EE0042D93
:1052200003D101214320015508E0082D03D10121BC
:105230004420015502E00121452001553046BDE8DA
:10524000F0812DE9F04704460D4616461F464FF003
:10525000000815B994F842000BE0042D02D1432058
:10526000005D06E0082D02D14420005D01E04520EC
:10527000005D022801D1BDE8F08715B994F842001D
:105280000BE0042D02D14320005D06E0082D02D181
:105290004420005D01E04520005D012818D106B1E1
:1052A0000FB90120E7E71DB9022084F8420011E0A0
:1052B000042D03D10221432001550BE0082D03D119
:1052C00002214420015505E002214520015501E05D
:1052D0000120D0E725B1042D1DD0082D61D145E076
:1052E0001F49606AC1631F49606A01641E49606AA0
:1052F000C164216801F134023B463146606A01F025
:1053000082FB08B10120B6E72068C06840F4007055
:105310002168C86048E01249A06AC1631149A06AC7
:1053200001641149A06AC164216801F138023B4659
:105330003146A06A01F067FB08B101209BE72068B5
:10534000C06840F480602168C8602DE00000014022
:105350000004004000080040000C004000400140F4
:10536000E94B000825120008A54B0008FE49E06A39
:10537000C163FE49E06A0164FD49E06AC1642168D5
:1053800001F13C023B463146E06A01F03CFB08B1CA
:10539000012070E72068C06840F400602168C860A0
:1053A00002E04FF0010800BF00BFB8F1000F36D196
:1053B000042229462068FFF72EFA2068406C40F44A
:1053C000004021684864EB492068884213D0206877
:1053D000B0F1804F0FD0E849206888420BD0E749F0
:1053E0002068884207D0E6492068884203D0E54912
:1053F000206888420DD12068806800F00709B9F163
:10540000060F0CD02068006840F001002168086099
:1054100005E02068006840F001002168086040460F
:1054200029E770B504460D46002625B1042D0CD0A1
:10543000082D1ED113E02068C06820F40070216898
:10544000C860606A01F082FB15E02068C06820F443
:1054500080602168C860A06A01F078FB0BE02068DA
:10546000C06820F400602168C860E06A01F06EFB4B
:1054700001E0012600BF00BF002E3ED100222946D8
:105480002068FFF7C8F900BF2068006A41F21111D7
:10549000084050B92068006A8910084028B920687F
:1054A000406C20F400402168486400BF00BF2068C1
:1054B000006A41F21111084050B92068006A891051
:1054C000084028B92068006820F0010021680860C1
:1054D00000BF1DB9012084F842000EE0042D03D165
:1054E00001214320015508E0082D03D1012144206A
:1054F000015502E0012145200155304670BD2DE9DE
:10550000F04704460D460DB9042000E00020824615
:1055100094F83E603F20075D94F8428094F84390F1
:10552000012E07D1012F05D1B8F1010F02D1B9F138
:10553000010F02D00120BDE8F087022084F83E0070
:1055400002213F200155022084F8420043200155EA
:10555000042229462068FFF75EF90122514620689F
:10556000FBF78DFC2068406C40F4004021684864E3
:105570000020E0E770B504460D460DB9042000E0B8
:1055800000200646002229462068FFF744F9002241
:1055900031462068FBF773FC00BF2068006A41F2C7
:1055A0001111084050B92068006A8910084028B9D4
:1055B0002068406C20F400402168486400BF00BFB0
:1055C0002068006A41F21111084050B92068006A51
:1055D0008910084028B92068006820F0010021687F
:1055E000086000BF012084F83E0001213F200155E2
:1055F000012084F8420043200155002070BD2DE9B0
:10560000F04704460D460DB9042000E00020824614
:1056100094F83E603F20075D94F8428094F84390F0
:10562000012E07D1012F05D1B8F1010F02D1B9F137
:10563000010F02D00120BDE8F087022084F83E006F
:1056400002213F200155022084F8420043200155E9
:105650002068C06840F002002168C8602068C06807
:1056600040F004002168C860042229462068FFF742
:10567000D2F8012251462068FBF701FC2068406CFB
:1056800040F40040216848640020D4E770B5044627
:105690000D460DB9042000E0002006462068C068D1
:1056A00020F002002168C8602068C06820F0040073
:1056B0002168C860002229462068FFF7ACF8002264
:1056C00031462068FBF7DBFB00BF2068006A41F22F
:1056D0001111084050B92068006A8910084028B9A3
:1056E0002068406C20F400402168486400BF00BF7F
:1056F0002068006A41F21111084050B92068006A20
:105700008910084028B92068006820F0010021684D
:10571000086000BF012084F83E0001213F200155B0
:10572000012084F8420043200155002070BD10B5CF
:10573000034600BF93F83C00012801D1022010BDB0
:10574000012083F83C0000BF29B1102903D0202993
:1057500001D030291BD11868806820F070001C68C7
:10576000A060186880680FE0E94B00082512000867
:10577000A54B000800000140000400400008004064
:10578000000C00400040014008431C68A0601868FD
:10579000406840F001001C6860601868406820F0B4
:1057A00004001C6860601868406810431C686060F2
:1057B0001868C06820F020001C68E0601868C068A5
:1057C00020F400501C68E06000BF002083F83C001B
:1057D00000BF00BFB3E710B5034600BF93F83C001D
:1057E000012801D1022010BD012083F83C0000BF38
:1057F00029B1102903D0202901D030290AD11868F5
:10580000806820F070001C68A060186880680843F9
:105810001C68A0601868406840F001001C68606067
:105820001868406820F004001C68606018684068D0
:1058300010431C6860601868C06820F400501C6841
:10584000E0601868C06840F020001C68E06000BF9D
:10585000002083F83C0000BF00BFC4E7704770B56C
:105860000446A56B012085F83D002846FFF7F6FFAA
:1058700070BD704770B50446A56B012085F83D00EA
:105880002846FFF7F6FF70BD10B5034600BF93F83A
:105890003C00012801D1022010BD012083F83C000A
:1058A00000BF29B1102903D0202901D030290AD105
:1058B0001868806820F070001C68A0601868806814
:1058C00008431C68A0601868406840F001001C682C
:1058D00060601868406820F004001C686060186808
:1058E000406810431C686060AFF27704586BC46373
:1058F000AFF29504586B04645F4C586BC46418682D
:10590000C06820F020001C68E0601868C06840F49F
:1059100000501C68E06000BF002083F83C0000BF1E
:1059200000BFB9E730B502460B4600BF92F83C0015
:10593000012801D1022030BD012082F83C0000BFC7
:10594000022082F83D00106844681068816824F0E5
:1059500070041868044310684460484D1068A842F9
:1059600013D01068B0F1804F0FD0454D1068A84299
:105970000BD0444D1068A84207D0434D1068A84290
:1059800003D0424D1068A84205D121F0800158682B
:10599000014310688160012082F83D0000BF0020B3
:1059A00082F83C0000BF00BFC5E710B503460022E7
:1059B00000BF93F83C00012801D1022010BD012056
:1059C00083F83C0000BF22F0FF00CC6840EA0402EC
:1059D00022F440708C6840EA040222F480604C6833
:1059E00040EA040222F400600C6840EA040222F457
:1059F00080500C6940EA040222F400504C6940EAED
:105A0000040222F48040CC6940EA0402186842642F
:105A100000BF002083F83C0000BF00BFCEE7024675
:105A200000BF92F83C00012801D1022070470120FC
:105A300082F83C0000BF1068016500BF002082F8BA
:105A40003C0000BF00BFF1E77047014691F83D0000
:105A50007047024611B992F842300BE0042902D196
:105A600043239B5C06E0082902D144239B5C01E0B0
:105A700045239B5C18467047E30B0008000001407B
:105A80000004004000080040000C004000400140BD
:105A900000207047F8B504460CB90120F8BD207805
:105AA00000F00100002874D0F948006800F00C00F4
:105AB00004280DD0F648006800F00C00082813D127
:105AC000F348001F006800F48000B0F5800F0BD190
:105AD000EF4808380068C0F34040002859D060689B
